{
  "contractName": "CourseMarketplace",
  "abi": [
    {
      "inputs": [],
      "stateMutability": "nonpayable",
      "type": "constructor"
    },
    {
      "inputs": [],
      "name": "CourseHasOwner",
      "type": "error"
    },
    {
      "inputs": [],
      "name": "CourseIsNotCreated",
      "type": "error"
    },
    {
      "inputs": [],
      "name": "InvalidState",
      "type": "error"
    },
    {
      "inputs": [],
      "name": "OnlyOwner",
      "type": "error"
    },
    {
      "inputs": [],
      "name": "SenderIsNotCourseOwner",
      "type": "error"
    },
    {
      "inputs": [],
      "name": "isStopped",
      "outputs": [
        {
          "internalType": "bool",
          "name": "",
          "type": "bool"
        }
      ],
      "stateMutability": "view",
      "type": "function",
      "constant": true
    },
    {
      "stateMutability": "payable",
      "type": "receive",
      "payable": true
    },
    {
      "inputs": [
        {
          "internalType": "uint256",
          "name": "amount",
          "type": "uint256"
        }
      ],
      "name": "withdraw",
      "outputs": [],
      "stateMutability": "nonpayable",
      "type": "function"
    },
    {
      "inputs": [],
      "name": "emergencyWithdraw",
      "outputs": [],
      "stateMutability": "nonpayable",
      "type": "function"
    },
    {
      "inputs": [],
      "name": "selfDestruct",
      "outputs": [],
      "stateMutability": "nonpayable",
      "type": "function"
    },
    {
      "inputs": [],
      "name": "stopContract",
      "outputs": [],
      "stateMutability": "nonpayable",
      "type": "function"
    },
    {
      "inputs": [],
      "name": "resumeContract",
      "outputs": [],
      "stateMutability": "nonpayable",
      "type": "function"
    },
    {
      "inputs": [
        {
          "internalType": "bytes16",
          "name": "courseId",
          "type": "bytes16"
        },
        {
          "internalType": "bytes32",
          "name": "proof",
          "type": "bytes32"
        }
      ],
      "name": "purchaseCourse",
      "outputs": [],
      "stateMutability": "payable",
      "type": "function",
      "payable": true
    },
    {
      "inputs": [
        {
          "internalType": "bytes32",
          "name": "courseHash",
          "type": "bytes32"
        }
      ],
      "name": "repurchaseCourse",
      "outputs": [],
      "stateMutability": "payable",
      "type": "function",
      "payable": true
    },
    {
      "inputs": [
        {
          "internalType": "bytes32",
          "name": "courseHash",
          "type": "bytes32"
        }
      ],
      "name": "activateCourse",
      "outputs": [],
      "stateMutability": "nonpayable",
      "type": "function"
    },
    {
      "inputs": [
        {
          "internalType": "bytes32",
          "name": "courseHash",
          "type": "bytes32"
        }
      ],
      "name": "deactivateCourse",
      "outputs": [],
      "stateMutability": "nonpayable",
      "type": "function"
    },
    {
      "inputs": [
        {
          "internalType": "address",
          "name": "newOwner",
          "type": "address"
        }
      ],
      "name": "transferOwnership",
      "outputs": [],
      "stateMutability": "nonpayable",
      "type": "function"
    },
    {
      "inputs": [],
      "name": "getCourseCount",
      "outputs": [
        {
          "internalType": "uint256",
          "name": "",
          "type": "uint256"
        }
      ],
      "stateMutability": "view",
      "type": "function",
      "constant": true
    },
    {
      "inputs": [
        {
          "internalType": "uint256",
          "name": "index",
          "type": "uint256"
        }
      ],
      "name": "getCourseHashAtIndex",
      "outputs": [
        {
          "internalType": "bytes32",
          "name": "",
          "type": "bytes32"
        }
      ],
      "stateMutability": "view",
      "type": "function",
      "constant": true
    },
    {
      "inputs": [
        {
          "internalType": "bytes32",
          "name": "courseHash",
          "type": "bytes32"
        }
      ],
      "name": "getCourseByHash",
      "outputs": [
        {
          "components": [
            {
              "internalType": "uint256",
              "name": "id",
              "type": "uint256"
            },
            {
              "internalType": "uint256",
              "name": "price",
              "type": "uint256"
            },
            {
              "internalType": "bytes32",
              "name": "proof",
              "type": "bytes32"
            },
            {
              "internalType": "address",
              "name": "owner",
              "type": "address"
            },
            {
              "internalType": "enum CourseMarketplace.State",
              "name": "state",
              "type": "uint8"
            }
          ],
          "internalType": "struct CourseMarketplace.Course",
          "name": "",
          "type": "tuple"
        }
      ],
      "stateMutability": "view",
      "type": "function",
      "constant": true
    },
    {
      "inputs": [],
      "name": "getContractOwner",
      "outputs": [
        {
          "internalType": "address",
          "name": "",
          "type": "address"
        }
      ],
      "stateMutability": "view",
      "type": "function",
      "constant": true
    }
  ],
  "bytecode": "0x608060405260008060006101000a81548160ff02191690831515021790555034801561002a57600080fd5b5061003a3361003f60201b60201c565b610083565b80600360006101000a81548173ffffffffffffffffffffffffffffffffffffffff021916908373ffffffffffffffffffffffffffffffffffffffff16021790555050565b6119d7806100926000396000f3fe6080604052600436106100ec5760003560e01c80636d11290b1161008a578063c4bc5da511610059578063c4bc5da5146102b8578063d76821cb146102cf578063db2e21bc146102eb578063f2fde38b14610302576100f3565b80636d11290b14610210578063935d7e6d1461024d57806396cfda06146102765780639cb8a26a146102a1576100f3565b80633f683b6a116100c65780633f683b6a14610161578063442890d51461018c5780636136e1eb146101b757806362e4e6ac146101d3576100f3565b806312253a6c146100f85780632e1a7d4d1461010f5780633926257214610138576100f3565b366100f357005b600080fd5b34801561010457600080fd5b5061010d61032b565b005b34801561011b57600080fd5b5061013660048036038101906101319190611493565b6103b3565b005b34801561014457600080fd5b5061015f600480360381019061015a919061146a565b6104f1565b005b34801561016d57600080fd5b506101766106dd565b604051610183919061168f565b60405180910390f35b34801561019857600080fd5b506101a16106ee565b6040516101ae9190611674565b60405180910390f35b6101d160048036038101906101cc919061146a565b610718565b005b3480156101df57600080fd5b506101fa60048036038101906101f5919061146a565b6108df565b6040516102079190611705565b60405180910390f35b34801561021c57600080fd5b5061023760048036038101906102329190611493565b610a07565b60405161024491906116aa565b60405180910390f35b34801561025957600080fd5b50610274600480360381019061026f919061146a565b610a24565b005b34801561028257600080fd5b5061028b610cef565b6040516102989190611720565b60405180910390f35b3480156102ad57600080fd5b506102b6610cf9565b005b3480156102c457600080fd5b506102cd610db7565b005b6102e960048036038101906102e4919061142e565b610e3f565b005b3480156102f757600080fd5b50610300611044565b005b34801561030e57600080fd5b5061032960048036038101906103249190611405565b611198565b005b6103336106ee565b73ffffffffffffffffffffffffffffffffffffffff163373ffffffffffffffffffffffffffffffffffffffff1614610397576040517f5fc483c500000000000000000000000000000000000000000000000000000000815260040160405180910390fd5b60016000806101000a81548160ff021916908315150217905550565b6103bb6106ee565b73ffffffffffffffffffffffffffffffffffffffff163373ffffffffffffffffffffffffffffffffffffffff161461041f576040517f5fc483c500000000000000000000000000000000000000000000000000000000815260040160405180910390fd5b6000600360009054906101000a900473ffffffffffffffffffffffffffffffffffffffff1673ffffffffffffffffffffffffffffffffffffffff16826040516104679061165f565b60006040518083038185875af1925050503d80600081146104a4576040519150601f19603f3d011682016040523d82523d6000602084013e6104a9565b606091505b50509050806104ed576040517f08c379a00000000000000000000000000000000000000000000000000000000081526004016104e4906116e5565b60405180910390fd5b5050565b60008054906101000a900460ff161561050957600080fd5b6105116106ee565b73ffffffffffffffffffffffffffffffffffffffff163373ffffffffffffffffffffffffffffffffffffffff1614610575576040517f5fc483c500000000000000000000000000000000000000000000000000000000815260040160405180910390fd5b61057e81611210565b6105b4576040517f4db0c48300000000000000000000000000000000000000000000000000000000815260040160405180910390fd5b600060016000838152602001908152602001600020905060006002811115610605577f4e487b7100000000000000000000000000000000000000000000000000000000600052602160045260246000fd5b8160030160149054906101000a900460ff16600281111561064f577f4e487b7100000000000000000000000000000000000000000000000000000000600052602160045260246000fd5b14610686576040517fbaf3f0f700000000000000000000000000000000000000000000000000000000815260040160405180910390fd5b60018160030160146101000a81548160ff021916908360028111156106d4577f4e487b7100000000000000000000000000000000000000000000000000000000600052602160045260246000fd5b02179055505050565b60008054906101000a900460ff1681565b6000600360009054906101000a900473ffffffffffffffffffffffffffffffffffffffff16905090565b60008054906101000a900460ff161561073057600080fd5b61073981611210565b61076f576040517f4db0c48300000000000000000000000000000000000000000000000000000000815260040160405180910390fd5b6107788161127f565b6107ae576040517fcce31cc400000000000000000000000000000000000000000000000000000000815260040160405180910390fd5b60006001600083815260200190815260200160002090506002808111156107fe577f4e487b7100000000000000000000000000000000000000000000000000000000600052602160045260246000fd5b8160030160149054906101000a900460ff166002811115610848577f4e487b7100000000000000000000000000000000000000000000000000000000600052602160045260246000fd5b1461087f576040517fbaf3f0f700000000000000000000000000000000000000000000000000000000815260040160405180910390fd5b60008160030160146101000a81548160ff021916908360028111156108cd577f4e487b7100000000000000000000000000000000000000000000000000000000600052602160045260246000fd5b02179055503481600101819055505050565b6108e7611331565b600160008381526020019081526020016000206040518060a00160405290816000820154815260200160018201548152602001600282015481526020016003820160009054906101000a900473ffffffffffffffffffffffffffffffffffffffff1673ffffffffffffffffffffffffffffffffffffffff1673ffffffffffffffffffffffffffffffffffffffff1681526020016003820160149054906101000a900460ff1660028111156109c4577f4e487b7100000000000000000000000000000000000000000000000000000000600052602160045260246000fd5b60028111156109fc577f4e487b7100000000000000000000000000000000000000000000000000000000600052602160045260246000fd5b815250509050919050565b600060026000838152602001908152602001600020549050919050565b60008054906101000a900460ff1615610a3c57600080fd5b610a446106ee565b73ffffffffffffffffffffffffffffffffffffffff163373ffffffffffffffffffffffffffffffffffffffff1614610aa8576040517f5fc483c500000000000000000000000000000000000000000000000000000000815260040160405180910390fd5b610ab181611210565b610ae7576040517f4db0c48300000000000000000000000000000000000000000000000000000000815260040160405180910390fd5b600060016000838152602001908152602001600020905060006002811115610b38577f4e487b7100000000000000000000000000000000000000000000000000000000600052602160045260246000fd5b8160030160149054906101000a900460ff166002811115610b82577f4e487b7100000000000000000000000000000000000000000000000000000000600052602160045260246000fd5b14610bb9576040517fbaf3f0f700000000000000000000000000000000000000000000000000000000815260040160405180910390fd5b60008160030160009054906101000a900473ffffffffffffffffffffffffffffffffffffffff1673ffffffffffffffffffffffffffffffffffffffff168260010154604051610c079061165f565b60006040518083038185875af1925050503d8060008114610c44576040519150601f19603f3d011682016040523d82523d6000602084013e610c49565b606091505b5050905080610c8d576040517f08c379a0000000000000000000000000000000000000000000000000000000008152600401610c84906116c5565b60405180910390fd5b60028260030160146101000a81548160ff02191690836002811115610cdb577f4e487b7100000000000000000000000000000000000000000000000000000000600052602160045260246000fd5b021790555060008260010181905550505050565b6000600454905090565b60008054906101000a900460ff16610d1057600080fd5b610d186106ee565b73ffffffffffffffffffffffffffffffffffffffff163373ffffffffffffffffffffffffffffffffffffffff1614610d7c576040517f5fc483c500000000000000000000000000000000000000000000000000000000815260040160405180910390fd5b600360009054906101000a900473ffffffffffffffffffffffffffffffffffffffff1673ffffffffffffffffffffffffffffffffffffffff16ff5b610dbf6106ee565b73ffffffffffffffffffffffffffffffffffffffff163373ffffffffffffffffffffffffffffffffffffffff1614610e23576040517f5fc483c500000000000000000000000000000000000000000000000000000000815260040160405180910390fd5b60008060006101000a81548160ff021916908315150217905550565b60008054906101000a900460ff1615610e5757600080fd5b60008233604051602001610e6c929190611633565b604051602081830303815290604052805190602001209050610e8d8161127f565b15610ec4576040517fb0fc2d9700000000000000000000000000000000000000000000000000000000815260040160405180910390fd5b600060046000815480929190610ed9906117fa565b9190505590508160026000838152602001908152602001600020819055506040518060a001604052808281526020013481526020018481526020013373ffffffffffffffffffffffffffffffffffffffff16815260200160006002811115610f6a577f4e487b7100000000000000000000000000000000000000000000000000000000600052602160045260246000fd5b8152506001600084815260200190815260200160002060008201518160000155602082015181600101556040820151816002015560608201518160030160006101000a81548173ffffffffffffffffffffffffffffffffffffffff021916908373ffffffffffffffffffffffffffffffffffffffff16021790555060808201518160030160146101000a81548160ff02191690836002811115611036577f4e487b7100000000000000000000000000000000000000000000000000000000600052602160045260246000fd5b021790555090505050505050565b60008054906101000a900460ff1661105b57600080fd5b6110636106ee565b73ffffffffffffffffffffffffffffffffffffffff163373ffffffffffffffffffffffffffffffffffffffff16146110c7576040517f5fc483c500000000000000000000000000000000000000000000000000000000815260040160405180910390fd5b6000600360009054906101000a900473ffffffffffffffffffffffffffffffffffffffff1673ffffffffffffffffffffffffffffffffffffffff164760405161110f9061165f565b60006040518083038185875af1925050503d806000811461114c576040519150601f19603f3d011682016040523d82523d6000602084013e611151565b606091505b5050905080611195576040517f08c379a000000000000000000000000000000000000000000000000000000000815260040161118c906116e5565b60405180910390fd5b50565b6111a06106ee565b73ffffffffffffffffffffffffffffffffffffffff163373ffffffffffffffffffffffffffffffffffffffff1614611204576040517f5fc483c500000000000000000000000000000000000000000000000000000000815260040160405180910390fd5b61120d816112ed565b50565b60008073ffffffffffffffffffffffffffffffffffffffff166001600084815260200190815260200160002060030160009054906101000a900473ffffffffffffffffffffffffffffffffffffffff1673ffffffffffffffffffffffffffffffffffffffff1614159050919050565b60003373ffffffffffffffffffffffffffffffffffffffff166001600084815260200190815260200160002060030160009054906101000a900473ffffffffffffffffffffffffffffffffffffffff1673ffffffffffffffffffffffffffffffffffffffff16149050919050565b80600360006101000a81548173ffffffffffffffffffffffffffffffffffffffff021916908373ffffffffffffffffffffffffffffffffffffffff16021790555050565b6040518060a00160405280600081526020016000815260200160008019168152602001600073ffffffffffffffffffffffffffffffffffffffff168152602001600060028111156113ab577f4e487b7100000000000000000000000000000000000000000000000000000000600052602160045260246000fd5b81525090565b6000813590506113c081611945565b92915050565b6000813590506113d58161195c565b92915050565b6000813590506113ea81611973565b92915050565b6000813590506113ff8161198a565b92915050565b60006020828403121561141757600080fd5b6000611425848285016113b1565b91505092915050565b6000806040838503121561144157600080fd5b600061144f858286016113c6565b9250506020611460858286016113db565b9150509250929050565b60006020828403121561147c57600080fd5b600061148a848285016113db565b91505092915050565b6000602082840312156114a557600080fd5b60006114b3848285016113f0565b91505092915050565b6114c581611757565b82525050565b6114d481611757565b82525050565b6114eb6114e682611757565b611843565b82525050565b6114fa81611769565b82525050565b61151161150c82611775565b611855565b82525050565b611520816117a1565b82525050565b61152f816117a1565b82525050565b61153e816117e8565b82525050565b6000611551600f83611746565b915061155c826118dc565b602082019050919050565b600061157460008361173b565b915061157f82611905565b600082019050919050565b6000611597601083611746565b91506115a282611908565b602082019050919050565b60a0820160008201516115c36000850182611615565b5060208201516115d66020850182611615565b5060408201516115e96040850182611517565b5060608201516115fc60608501826114bc565b50608082015161160f6080850182611535565b50505050565b61161e816117de565b82525050565b61162d816117de565b82525050565b600061163f8285611500565b60108201915061164f82846114da565b6014820191508190509392505050565b600061166a82611567565b9150819050919050565b600060208201905061168960008301846114cb565b92915050565b60006020820190506116a460008301846114f1565b92915050565b60006020820190506116bf6000830184611526565b92915050565b600060208201905081810360008301526116de81611544565b9050919050565b600060208201905081810360008301526116fe8161158a565b9050919050565b600060a08201905061171a60008301846115ad565b92915050565b60006020820190506117356000830184611624565b92915050565b600081905092915050565b600082825260208201905092915050565b6000611762826117be565b9050919050565b60008115159050919050565b60007fffffffffffffffffffffffffffffffff0000000000000000000000000000000082169050919050565b6000819050919050565b60008190506117b982611931565b919050565b600073ffffffffffffffffffffffffffffffffffffffff82169050919050565b6000819050919050565b60006117f3826117ab565b9050919050565b6000611805826117de565b91507fffffffffffffffffffffffffffffffffffffffffffffffffffffffffffffffff82141561183857611837611871565b5b600182019050919050565b600061184e8261185f565b9050919050565b6000819050919050565b600061186a826118cf565b9050919050565b7f4e487b7100000000000000000000000000000000000000000000000000000000600052601160045260246000fd5b7f4e487b7100000000000000000000000000000000000000000000000000000000600052602160045260246000fd5b60008160601b9050919050565b7f5472616e73666572206661696c65640000000000000000000000000000000000600082015250565b50565b7f5472616e73666572206661696c65642e00000000000000000000000000000000600082015250565b60038110611942576119416118a0565b5b50565b61194e81611757565b811461195957600080fd5b50565b61196581611775565b811461197057600080fd5b50565b61197c816117a1565b811461198757600080fd5b50565b611993816117de565b811461199e57600080fd5b5056fea264697066735822122022a173f80b3366c6497b90f6d83acd7067830a65012955fb15447f6560e99ef364736f6c63430008040033",
  "immutableReferences": {},
  "source": "// SPDX-License-Identifier: MIT\r\npragma solidity >=0.4.22 <0.9.0;\r\n\r\ncontract CourseMarketplace {\r\n    enum State {\r\n        Purchased,\r\n        Activated,\r\n        Deactivated\r\n    }\r\n\r\n    struct Course {\r\n        uint id;\r\n        uint price;\r\n        bytes32 proof;\r\n        address owner;\r\n        State state;\r\n    }\r\n    bool public isStopped = false;\r\n    mapping(bytes32 => Course) private ownedCourses;\r\n    mapping(uint => bytes32) private ownedCourseHash;\r\n    address payable private owner;\r\n    constructor ()\r\n    {\r\n        setContractOwner(msg.sender);\r\n    }\r\n    uint private totalOwnedCourses;\r\n    \r\n    /// Course has invalid state!\r\n    error InvalidState();\r\n    /// Course is not created!\r\n    error CourseIsNotCreated();\r\n\r\n    /// Course has already a Owner!\r\n    error CourseHasOwner();\r\n\r\n        /// Sender is not course owner!\r\n    error SenderIsNotCourseOwner();\r\n\r\n    /// Only owner has an access!\r\n    error OnlyOwner();\r\n    modifier onlyOwner()\r\n    {\r\n        if (msg.sender != getContractOwner())\r\n        {\r\n            revert OnlyOwner();\r\n        }\r\n        _;\r\n    }\r\n    modifier onlyWhenNotStopped {\r\n        require(!isStopped);\r\n        _;\r\n    }\r\n       modifier onlyWhenStopped {\r\n        require(isStopped);\r\n        _;\r\n    }\r\n\r\n    receive() external payable {}\r\n\r\n    function withdraw(uint amount)\r\n        external\r\n        onlyOwner\r\n    {\r\n        (bool success, ) = owner.call{value: amount}(\"\");\r\n        require(success, \"Transfer failed.\");\r\n    }\r\n        function emergencyWithdraw()\r\n        external\r\n        onlyWhenStopped\r\n        onlyOwner\r\n    {\r\n        (bool success, ) = owner.call{value: address(this).balance}(\"\");\r\n        require(success, \"Transfer failed.\");\r\n    }\r\n\r\n    function selfDestruct()\r\n        external\r\n        onlyWhenStopped\r\n        onlyOwner\r\n    {\r\n        selfdestruct(owner);\r\n    }\r\n\r\n\r\n    function stopContract()\r\n        external\r\n        onlyOwner\r\n    {\r\n        isStopped = true;        \r\n    }\r\n    function resumeContract()\r\n        external\r\n        onlyOwner\r\n    {\r\n        isStopped = false;        \r\n    }\r\n\r\n    function purchaseCourse(\r\n        bytes16 courseId,\r\n        bytes32 proof\r\n    )\r\n        external\r\n        payable\r\n        onlyWhenNotStopped\r\n    {\r\n        bytes32 courseHash = keccak256(abi.encodePacked(courseId, msg.sender));\r\n        if (hasCourseOwnership(courseHash)) {\r\n        revert CourseHasOwner();\r\n    }\r\n        uint id = totalOwnedCourses++;\r\n        ownedCourseHash[id] = courseHash;\r\n        ownedCourses[courseHash] = Course({\r\n            id: id,\r\n            price: msg.value,\r\n            proof: proof,\r\n            owner: msg.sender,\r\n            state: State.Purchased\r\n        });\r\n    }\r\n    function repurchaseCourse(bytes32 courseHash) \r\n        external\r\n        payable\r\n        onlyWhenNotStopped\r\n    {\r\n        if (!isCourseCreated(courseHash)) {\r\n            revert CourseIsNotCreated();\r\n        }\r\n        if (!hasCourseOwnership(courseHash)) {\r\n            revert SenderIsNotCourseOwner();\r\n        }\r\n        Course storage course = ownedCourses[courseHash];\r\n\r\n        if (course.state != State.Deactivated) {\r\n            revert InvalidState();\r\n        }\r\n        course.state = State.Purchased;\r\n        course.price = msg.value;\r\n    }\r\n    function activateCourse(\r\n        bytes32 courseHash\r\n    )\r\n        external\r\n        onlyWhenNotStopped\r\n        onlyOwner\r\n        \r\n     {\r\n         if (!isCourseCreated(courseHash)) {\r\n             revert CourseIsNotCreated();\r\n         }\r\n\r\n        Course storage course = ownedCourses[courseHash];\r\n\r\n\r\n        if (course.state != State.Purchased) {\r\n            revert InvalidState();\r\n        }\r\n        course.state = State.Activated;\r\n\r\n    }\r\n        function deactivateCourse(\r\n        bytes32 courseHash\r\n    )\r\n        external\r\n        onlyWhenNotStopped\r\n        onlyOwner\r\n     {\r\n         if (!isCourseCreated(courseHash)) {\r\n             revert CourseIsNotCreated();\r\n         }\r\n\r\n        Course storage course = ownedCourses[courseHash];\r\n\r\n\r\n        if (course.state != State.Purchased) {\r\n            revert InvalidState();\r\n        }\r\n        (bool success, ) = course.owner.call{value: course.price}(\"\");\r\n        require(success, \"Transfer failed\");\r\n                   \r\n        course.state = State.Deactivated;\r\n        course.price = 0;\r\n    }\r\n    \r\n    function transferOwnership(address newOwner)\r\n        external\r\n        onlyOwner\r\n    {\r\n        setContractOwner(newOwner);\r\n    }\r\n    function getCourseCount()\r\n        external\r\n        view\r\n        returns (uint)\r\n    {\r\n        return totalOwnedCourses;\r\n    }\r\n    function getCourseHashAtIndex(uint index)\r\n        external\r\n        view\r\n        returns (bytes32)\r\n    {\r\n        return ownedCourseHash[index];\r\n    }\r\n    function getCourseByHash(bytes32 courseHash)\r\n        external\r\n        view\r\n        returns (Course memory)\r\n    {\r\n        return ownedCourses[courseHash];\r\n    }\r\n    function getContractOwner()\r\n        public\r\n        view\r\n        returns (address)\r\n    {\r\n        return owner;\r\n    }\r\n    function setContractOwner(address newOwner)\r\n        private\r\n    {\r\n        owner = payable(newOwner);\r\n    }\r\n\r\n    function isCourseCreated(bytes32 courseHash)\r\n        private\r\n        view\r\n        returns (bool)\r\n    {\r\n        return ownedCourses[courseHash].owner != 0x0000000000000000000000000000000000000000;\r\n    }\r\n\r\n    function hasCourseOwnership(bytes32 courseHash)\r\n        private\r\n        view\r\n        returns (bool)\r\n    {\r\n        return ownedCourses[courseHash].owner == msg.sender;\r\n    }\r\n}",
  "sourcePath": "D:\\Grades\\Web3\\Blockchain\\marketplace-eth\\contracts\\CourseMarketplace.sol",
  "compiler": {
    "name": "solc",
    "version": "0.8.4+commit.c7e474f2.Emscripten.clang"
  },
  "schemaVersion": "3.4.3",
  "updatedAt": "2022-02-28T10:08:06.938Z",
  "networkType": "ethereum",
  "devdoc": {
    "kind": "dev",
    "methods": {},
    "version": 1
  },
  "userdoc": {
    "errors": {
      "CourseHasOwner()": [
        {
          "notice": "Course has already a Owner!"
        }
      ],
      "CourseIsNotCreated()": [
        {
          "notice": "Course is not created!"
        }
      ],
      "InvalidState()": [
        {
          "notice": "Course has invalid state!"
        }
      ],
      "OnlyOwner()": [
        {
          "notice": "Only owner has an access!"
        }
      ],
      "SenderIsNotCourseOwner()": [
        {
          "notice": "Sender is not course owner!"
        }
      ]
    },
    "kind": "user",
    "methods": {},
    "version": 1
  }
}